{
  "address": "0x887b1001872aB54EC7E65Dd6D2BC8926b97EC372",
  "abi": [
    {
      "anonymous": false,
      "inputs": [
        {
          "indexed": false,
          "internalType": "uint256",
          "name": "id",
          "type": "uint256"
        },
        {
          "indexed": false,
          "internalType": "address",
          "name": "author",
          "type": "address"
        }
      ],
      "name": "DeletePost",
      "type": "event"
    },
    {
      "anonymous": false,
      "inputs": [
        {
          "indexed": false,
          "internalType": "uint256",
          "name": "id",
          "type": "uint256"
        },
        {
          "indexed": false,
          "internalType": "string",
          "name": "ipfs",
          "type": "string"
        },
        {
          "indexed": false,
          "internalType": "address",
          "name": "author",
          "type": "address"
        }
      ],
      "name": "NewPost",
      "type": "event"
    },
    {
      "inputs": [
        {
          "internalType": "uint256",
          "name": "_id",
          "type": "uint256"
        }
      ],
      "name": "deletePost",
      "outputs": [],
      "stateMutability": "nonpayable",
      "type": "function"
    },
    {
      "inputs": [
        {
          "internalType": "string",
          "name": "_ipfs",
          "type": "string"
        }
      ],
      "name": "newPost",
      "outputs": [],
      "stateMutability": "nonpayable",
      "type": "function"
    },
    {
      "inputs": [
        {
          "internalType": "uint256",
          "name": "",
          "type": "uint256"
        }
      ],
      "name": "postAuthor",
      "outputs": [
        {
          "internalType": "address",
          "name": "",
          "type": "address"
        }
      ],
      "stateMutability": "view",
      "type": "function"
    },
    {
      "inputs": [
        {
          "internalType": "uint256",
          "name": "",
          "type": "uint256"
        }
      ],
      "name": "posts",
      "outputs": [
        {
          "internalType": "string",
          "name": "",
          "type": "string"
        }
      ],
      "stateMutability": "view",
      "type": "function"
    }
  ],
  "transactionHash": "0xd42709e281ce0e27bbe7c3f79286e29d489377671a42220be4482625e84351f2",
  "args": [],
  "numDeployments": 1,
  "solcInputHash": "1e7904852b3b897f78da3d5226b19a69",
  "bytecode": "0x608060405234801561001057600080fd5b50610a02806100206000396000f3fe608060405234801561001057600080fd5b506004361061004c5760003560e01c8063094cd5ee146100515780630b1e7f831461006d57806323bcaae91461009d5780639a5f277f146100b9575b600080fd5b61006b60048036038101906100669190610535565b6100e9565b005b61008760048036038101906100829190610535565b61026c565b60405161009491906105fb565b60405180910390f35b6100b760048036038101906100b29190610752565b610318565b005b6100d360048036038101906100ce9190610535565b610415565b6040516100e091906107dc565b60405180910390f35b60008054905081106100fa57600080fd5b6001600082815260200190815260200160002060009054906101000a900473ffffffffffffffffffffffffffffffffffffffff1673ffffffffffffffffffffffffffffffffffffffff163373ffffffffffffffffffffffffffffffffffffffff161461019b576040517f08c379a000000000000000000000000000000000000000000000000000000000815260040161019290610843565b60405180910390fd5b60006001600083815260200190815260200160002060006101000a81548173ffffffffffffffffffffffffffffffffffffffff021916908373ffffffffffffffffffffffffffffffffffffffff160217905550604051806020016040528060008152506000828154811061021257610211610863565b5b90600052602060002001908051906020019061022f929190610448565b507ff554ada50bd32529db93c77a5f8fca7828108ba6c356b0f45e19721b091f729c81336040516102619291906108a1565b60405180910390a150565b6000818154811061027c57600080fd5b906000526020600020016000915090508054610297906108f9565b80601f01602080910402602001604051908101604052809291908181526020018280546102c3906108f9565b80156103105780601f106102e557610100808354040283529160200191610310565b820191906000526020600020905b8154815290600101906020018083116102f357829003601f168201915b505050505081565b60008151141561032757600080fd5b600081908060018154018082558091505060019003906000526020600020016000909190919091509080519060200190610362929190610448565b503360016000600160008054905061037a919061095a565b815260200190815260200160002060006101000a81548173ffffffffffffffffffffffffffffffffffffffff021916908373ffffffffffffffffffffffffffffffffffffffff1602179055507f5f25aaa6d18b3b7c782960b4388b40578a9c3a9302aa5038660fb0d992a7837260016000805490506103f9919061095a565b823360405161040a9392919061098e565b60405180910390a150565b60016020528060005260406000206000915054906101000a900473ffffffffffffffffffffffffffffffffffffffff1681565b828054610454906108f9565b90600052602060002090601f01602090048101928261047657600085556104bd565b82601f1061048f57805160ff19168380011785556104bd565b828001600101855582156104bd579182015b828111156104bc5782518255916020019190600101906104a1565b5b5090506104ca91906104ce565b5090565b5b808211156104e75760008160009055506001016104cf565b5090565b6000604051905090565b600080fd5b600080fd5b6000819050919050565b610512816104ff565b811461051d57600080fd5b50565b60008135905061052f81610509565b92915050565b60006020828403121561054b5761054a6104f5565b5b600061055984828501610520565b91505092915050565b600081519050919050565b600082825260208201905092915050565b60005b8381101561059c578082015181840152602081019050610581565b838111156105ab576000848401525b50505050565b6000601f19601f8301169050919050565b60006105cd82610562565b6105d7818561056d565b93506105e781856020860161057e565b6105f0816105b1565b840191505092915050565b6000602082019050818103600083015261061581846105c2565b905092915050565b600080fd5b600080fd5b7f4e487b7100000000000000000000000000000000000000000000000000000000600052604160045260246000fd5b61065f826105b1565b810181811067ffffffffffffffff8211171561067e5761067d610627565b5b80604052505050565b60006106916104eb565b905061069d8282610656565b919050565b600067ffffffffffffffff8211156106bd576106bc610627565b5b6106c6826105b1565b9050602081019050919050565b82818337600083830152505050565b60006106f56106f0846106a2565b610687565b90508281526020810184848401111561071157610710610622565b5b61071c8482856106d3565b509392505050565b600082601f8301126107395761073861061d565b5b81356107498482602086016106e2565b91505092915050565b600060208284031215610768576107676104f5565b5b600082013567ffffffffffffffff811115610786576107856104fa565b5b61079284828501610724565b91505092915050565b600073ffffffffffffffffffffffffffffffffffffffff82169050919050565b60006107c68261079b565b9050919050565b6107d6816107bb565b82525050565b60006020820190506107f160008301846107cd565b92915050565b7f6d73672073656e646572206e6f7420617574686f72206f6620706f7374000000600082015250565b600061082d601d8361056d565b9150610838826107f7565b602082019050919050565b6000602082019050818103600083015261085c81610820565b9050919050565b7f4e487b7100000000000000000000000000000000000000000000000000000000600052603260045260246000fd5b61089b816104ff565b82525050565b60006040820190506108b66000830185610892565b6108c360208301846107cd565b9392505050565b7f4e487b7100000000000000000000000000000000000000000000000000000000600052602260045260246000fd5b6000600282049050600182168061091157607f821691505b60208210811415610925576109246108ca565b5b50919050565b7f4e487b7100000000000000000000000000000000000000000000000000000000600052601160045260246000fd5b6000610965826104ff565b9150610970836104ff565b9250828210156109835761098261092b565b5b828203905092915050565b60006060820190506109a36000830186610892565b81810360208301526109b581856105c2565b90506109c460408301846107cd565b94935050505056fea2646970667358221220774c4bc9e50feb29910d1409a89db2b737c6434c3261bd39e4007d73388be58a64736f6c63430008090033",
  "devdoc": {
    "kind": "dev",
    "methods": {},
    "version": 1
  },
  "userdoc": {
    "kind": "user",
    "methods": {},
    "version": 1
  },
  "storageLayout": {
    "storage": [
      {
        "astId": 4,
        "contract": "contracts/Social.sol:Social",
        "label": "posts",
        "offset": 0,
        "slot": "0",
        "type": "t_array(t_string_storage)dyn_storage"
      },
      {
        "astId": 8,
        "contract": "contracts/Social.sol:Social",
        "label": "postAuthor",
        "offset": 0,
        "slot": "1",
        "type": "t_mapping(t_uint256,t_address)"
      }
    ],
    "types": {
      "t_address": {
        "encoding": "inplace",
        "label": "address",
        "numberOfBytes": "20"
      },
      "t_array(t_string_storage)dyn_storage": {
        "base": "t_string_storage",
        "encoding": "dynamic_array",
        "label": "string[]",
        "numberOfBytes": "32"
      },
      "t_mapping(t_uint256,t_address)": {
        "encoding": "mapping",
        "key": "t_uint256",
        "label": "mapping(uint256 => address)",
        "numberOfBytes": "32",
        "value": "t_address"
      },
      "t_string_storage": {
        "encoding": "bytes",
        "label": "string",
        "numberOfBytes": "32"
      },
      "t_uint256": {
        "encoding": "inplace",
        "label": "uint256",
        "numberOfBytes": "32"
      }
    }
  }
}